:020000041000EA
:1000000000200008CB0000100D0000002D010010A2
:1000100000000000000000000000000000000000E0
:100020000000000000000000000000002901001096
:10003000000000000000000029010010290100104C
:1000400029010010290100102901001029010010C8
:1000500029010010290100102901001029010010B8
:1000600029010010290100102901001029010010A8
:100070002901001029010010290100102901001098
:1000800010B5064C2378002B07D1054B002B02D06E
:10009000044800E000BF0123237010BDEC020008FB
:1000A0000000000074110010044B10B5002B03D0A9
:1000B0000349044800E000BF10BDC0460000000036
:1000C000F0020008741100107047FFF7FDFF72B6D0
:1000D0000F4C104DAC4209DA21686268A368043BFA
:1000E00002DBC858D050FAE70C34F3E70A490B4A50
:1000F0000020521A02DD043A8850FCDC0848094905
:100100000860BFF34F8F00F0E9F800F075F9FEE7E3
:100110007811001090110010EC020008CC040008C7
:100120000000000808ED00E0FEE7FEE700B504204F
:100130007146084202D0EFF3098001E0EFF3088036
:10014000043000F0DBFBFEE710B5002000F098FA69
:1001500010BD7047F8B5E0234E4C9B00E2580F23CA
:10016000D02107201A4093001B19890059580140DB
:1001700065D0042959D04848002A65D1B223B1225C
:100180000321DB00D200E558A358A6581B0F360FF9
:100190000B400E4204D0A258120F0A40012A01D18E
:1001A000EA0701D4032B11D1B0233C4ADB00E65807
:1001B000A158E558C904C90C00F0ACFDB3039B0B72
:1001C0005843E901C90F013100F0A4FDE0239B0071
:1001D000E358334A9B069B0FD840324B1860324B92
:1001E000D458D158240A090E013100F093FD2F4B49
:1001F000E1B21860013100F08DFD2D4B0400186054
:100200002C4B2D4918602D4BC01800F083FDFA21AE
:100210002B4B890018702B4BE01800F07BFD2A4B0C
:1002200018602A4BC0031860F8BDC0211F20890048
:1002300059580140112904D1802000029CE724482C
:100240009AE7FA20C00197E7013A012ABED80327AE
:10025000204A9E58204A99589D582D0F3D4204D05F
:100260009D582D0F3D40012D01D1F50703D4890084
:10027000890F0329AAD19E5899589D587F2333404E
:100280001F26090A3140584300F044FD290C314033
:100290009AE7C0460000264000366E018405000043
:1002A00000002040840000080810000088000008BA
:1002B000800000089000000840420F003F420F00FD
:1002C00098000008E7030000940000088C00000874
:1002D00000127A003C060000FC05000010B51D4825
:1002E00000F0A6F8B022E02130201B4CD200A35829
:1002F00089005B005B08A3506358834363508023ED
:100300005B04A350154B164AE250A022043392011D
:10031000E250FF22134BE25000F096FCC022012174
:100320005200A3588B43A350FFF713FFFFF712FFB0
:100330000D4A8021032000F00BFA0C4800F07EF8F3
:100340000B4B1B6851331B78002B02D0094800F07F
:10035000E3F810BDC40E0010000026408405000024
:10036000010002008C050000980200080803000844
:10037000C8040008900E001010B5902400F051F849
:10038000074B64011A5907491140074A0A431A5199
:10039000102259681142FCD000F047F810BDC04649
:1003A00000002040FCFF00000100FA05F8B5902590
:1003B0000E4C6D01070000F034F863590600DB4372
:1003C0009B0701D1FFF7D8FF80239B00E7506359BB
:1003D000074A1A40074B13436351102362681A42BD
:1003E000FCD0300000F021F8F8BDC04600002040ED
:1003F000FCFF00000300FA0510B562B60348FFF7E2
:10040000D5FF002000F08AFBFBE7C046002000106B
:100410000230800803D001300238FCD1C046C0460B
:100420007047EFF3108072B6704780F31088704702
:10043000014B18607047C046C8040008024B1A6898
:10044000002A00D11860704788040008F7B52C4DC9
:100450001F002B68040000910192002B03D1BF21E3
:10046000284800F03BFA2C23FF225C432B683D0018
:100470001C193B0A3F0CA760234F134063603B6885
:100480001540256031331B789D4204D3E9211F4874
:10049000490000F023FA3B681A00B0321288554335
:1004A0001A6A3233AD1825611B7865689D4204D302
:1004B000F7211648490000F011FA3B6880351B6AA5
:1004C0006D01A668ED186561330C08D00F4F104917
:1004D000380000F003FA0F49380000F0FFF9330448
:1004E0001A0C1343AB60019BE361009B2362002362
:1004F000A361089B002B01D01B88A381F7BDC046D8
:10050000880400087C0F0010C8040008E20F0010E7
:100510000D0200000E020000F0B5040085B00028B6
:1005200003D15C21214800F0D9F96368032B03D97A
:100530005E211E4800F0D2F9E36A002B03D162214C
:100540001A4800F0CBF9236B002B03D16321174825
:1005500000F0C4F9A36802AD2B80154B22681B681C
:10056000E16ADB8EE0689B186B806368A26A039384
:1005700000952369266A676AFFF768FF00213B0040
:100580000A0000913000FFF761FF216B280000F0A6
:1005900051F90022AB5E002B06DB1F2213401E3AEE
:1005A0009A401300034A136005B0F0BD7C0F0010A1
:1005B000C804000800E100E0002373B504000193C3
:1005C000984204D1DC212C48FF3100F087F92369DF
:1005D000002B04D1EE212848490000F07FF963691F
:1005E000002B04D1DE212448FF3100F077F9236A83
:1005F000002B04D1EF212048490000F06FF9626917
:10060000D5682B0C22D01B04136013681B4B206988
:100610001B68B4331B68C3181B68002B16DA01A9CA
:1006200000F05CFB0026B0420CD10198E26903683F
:100630001E0CDBB29A4205D9226A9B009B58002B04
:1006400000D098473100206900F010FBADB2002DBA
:1006500009D063691D6000251B68636AAB4205D041
:1006600098476562A56163691B6873BDA36A002B27
:10067000F8D09847F6E7C0467C0F0010C804000881
:1006800070B5084C05002368002B04D1BC21064836
:10069000FF3100F023F92C20454320684019FFF773
:1006A0008BFF70BD880400087C0F001070B50A4DE8
:1006B00004002B6831331B78834204D8E9210748B2
:1006C000490000F00BF92B681A00B032108844433F
:1006D000186A201870BDC046C8040008E20F001058
:1006E000F8B5174B0D001B6831331B78834225D9B1
:1006F000002923D01F240B681C401FD1FFF7D6FF11
:1007000007002B680F4EDA0821003060686800F09F
:100710008DFB2100380000F0A9FA21002A00306882
:1007200000F0C2FA041E07D10100306800F09EFA02
:1007300003002000002B00D00348F8BD0348FCE76D
:10074000C80400088C04000801018A0003018A0023
:1007500010B50C00002A07D100290DD1FFF7A6FF24
:10076000064B1860200010BD002905D004490C601C
:100770004A60FFF7B5FFF6E70248F4E78C0400088B
:10078000A802000803018A0070B5194E05003368FD
:100790000C001A0028321278012A15D1820807218C
:1007A000100088430FD103202840C00084401B68FC
:1007B000920020339B182200FF24844019684A408D
:1007C00014404C401C6070BD5B8F8B4203D1802174
:1007D000084800F083F8336807201A68802328400F
:1007E0001B06184380239B01E418A400A050EAE7ED
:1007F000C8040008481000100A4B70B59B680A4EE8
:1008000010300D008400B34209D1002904D14221E7
:100810000648FF3100F062F83059355170BD044B85
:100820001859FBE700ED00E0000000084810001038
:1008300000000010F8B506000D00002841D0436804
:10084000032B03D93C21204800F048F80023F05E38
:10085000002828DB7188FFF797FF0024FF22032779
:1008600094460023F05E716883B21F40FF00664625
:10087000BA4089013140D243B940002815DB134EFC
:1008800083089B009B19C026B6009F593A4011432C
:1008900099510F4B9A680F4B9A4202D12900FFF7EA
:1008A000ABFF2000F8BD0C4CD8E70F263340083BC7
:1008B000074E9B089B009B19DE6932401143D961AA
:1008C000E7E7054CEDE7C0464810001000E100E006
:1008D00000ED00E0000000080100560070B50D00BA
:1008E000044C01001822200000F0A8FAA56101BE06
:1008F000FEE7C046B0020008FEE7000002680A4BAF
:1009000010B5DA6142681A6282685A62C2689A62F5
:100910000269DA6242691A6382695A63C2699A6338
:10092000FFF7EAFF10BDC046B0020008B0235B0528
:100930005A782120002A01D05878C0B27047B023DD
:100940005B059A89002A02D0988980B2704780207E
:100950004000FBE710B5074C236831331B78002BB0
:1009600004D1E92104484900FFF7B8FF2368186A59
:1009700010BDC046C8040008E20F001030B50400E6
:1009800085B00D00042803D927492848FFF7A6FFA2
:100990006B1E012B07D9FB222B1F134203D02449C6
:1009A0002248FFF79BFF234BA400E458042D01D0FD
:1009B000012D1AD100200FE0A3682B420BD1E36870
:1009C00029001A685B6802920193039302A82368C6
:1009D0009847194B1C606469002C04D0174B98424F
:1009E000EAD1012DE8D105B030BD022D06D1124B60
:1009F0001B68181EF7D01C6903E01C006369002BFC
:100A0000FBD10020002CEED0A3682B4209D1E36873
:100A100029001A685B6802920193039302A8236875
:100A200098472469EEE7C046E6090000AC100010C4
:100A3000E7090000B4040008B0040008FF00420009
:100A400010B5041E03D111491148FFF747FFF222E8
:100A5000104BD2011B68DB689A582260F022D20149
:100A60009A5862600C4A9A58A2600C4A9A58E260FE
:100A70000B4A9A5822610B4A9A5862610A4A9A585C
:100A8000A2610A4A9B58E36110BDC046D50A000026
:100A9000AC100010C80400080478000008780000BA
:100AA0000C7800001078000014780000187800001E
:100AB00010B5041E03D110491048FFF70FFFF022B4
:100AC0000F4B61681B68D201DB689950A1680D4A21
:100AD0009950E1680C4A995021690C4A9950616912
:100AE0000B4A9950A1690B4A9950E1690A4A9950F9
:100AF0002168E832995010BDFD0A0000AC100010CA
:100B0000C804000804780000087800000C78000091
:100B1000107800001478000018780000F7B507007E
:100B2000012803D940494148FFF7D8FE404D6B6882
:100B3000002B4AD1FFF775FC6B680190002B56D152
:100B40003C4E33681A0043321278002A07D09B6863
:100B5000E0331B68DB0602D53748FFF771FFFFF76C
:100B6000EEFE80235B00984246D1380000F088F901
:100B7000002433681A0043321278002A17D0002864
:100B800015D09B68E0331B68DB0610D5FFF7CEFE5F
:100B9000294B212808D032681300B0331988072365
:100BA0004B43126A9B18DB681800FFF781FF01981E
:100BB000FFF73BFC002C0ED16B68002B03D0082103
:100BC0000120FFF7DBFE2000FEBD01210800FFF73A
:100BD000D5FE041EAED06B68002B03D0022101208D
:100BE000FFF7CCFE154B9C42EDD0154CEBE70421F2
:100BF0000120FFF7C3FEA3E7FFF7ACFE3368B43371
:100C00001B68C0180368002B0BDB04230D4A116915
:100C10000B431361012F02D030BF0020A8E720BF93
:100C2000FBE70020054CA4E7AF020000AC10001069
:100C3000B4040008C804000890040008050042003D
:100C4000FF00420000ED00E0C02280200649520073
:100C50008B58C0059B009B0803438B50802388580A
:100C60001B0603438B507047000026400B4B70B5AA
:100C70001B680500B4331B680C00C3181B68002BED
:100C80000ADA0B0C04D0B92105488900FFF726FECB
:100C90000020A4B26C6070BD0248FCE7C8040008E4
:100CA000E20F001001008A00036870B505000C0017
:100CB000002B0ADAC2600B0C03D005490548FFF788
:100CC0000DFE0020A4B2AC6070BD0348FCE7C04636
:100CD000CA020000E20F001001008A0070B5050092
:100CE0000C1E03D1A3210848FFF7F8FD074B1B6832
:100CF000B4331B68EB181B68002B03DA0020EB6889
:100D0000236070BD0248FCE70F110010C804000802
:100D100001008A00002243088B4274D303098B42EE
:100D20005FD3030A8B4244D3030B8B4228D3030CBB
:100D30008B420DD3FF22090212BA030C8B4202D35D
:100D40001212090265D0030B8B4219D300E0090A85
:100D5000C30B8B4201D3CB03C01A5241830B8B428E
:100D600001D38B03C01A5241430B8B4201D34B0377
:100D7000C01A5241030B8B4201D30B03C01A5241DC
:100D8000C30A8B4201D3CB02C01A5241830A8B4261
:100D900001D38B02C01A5241430A8B4201D34B024A
:100DA000C01A5241030A8B4201D30B02C01A5241AE
:100DB000CDD2C3098B4201D3CB01C01A5241830962
:100DC0008B4201D38B01C01A524143098B4201D39C
:100DD0004B01C01A524103098B4201D30B01C01AC7
:100DE0005241C3088B4201D3CB00C01A5241830841
:100DF0008B4201D38B00C01A524143088B4201D36E
:100E00004B00C01A5241411A00D2014652411046CD
:100E10007047FFE701B5002000F006F802BDC046AC
:100E20000029F7D076E770477047C04603001218D4
:100E3000934200D1704719700133F9E730B50500CE
:100E4000002A00D130BD0C78013A6B1C2C700131A6
:100E5000002C05D19A189A42F4D01C700133FAE79D
:100E60001D00EDE7F8B5C046F8BC08BC9E467047CB
:100E7000F8B5C046F8BC08BC9E46704700000000AC
:100E800001B40248844601BC604700BFA5000008C9
:100E9000030000000100000001000000000000004D
:100EA00005036000040000000100000000000000D5
:100EB000010000000604600008000000680400084B
:100EC00049010010000020400000244000000040C4
:100ED00000000000000023400000304000003140CE
:100EE00000009F4000002240000010400202020269
:100EF000020202020210101D800017007500FF039D
:100F00000602063604102000000000007FC000002A
:100F100000040000000000000019324B647D0080D6
:100F20004000080B100000000000FF012002001F1D
:100F300000800004FF081018001000140018001CA6
:100F40004044484C50000000081000000800000019
:100F50000400000004100000001200000421000042
:100F6000002100000016000040114002C4130013CD
:100F70008013A013200000001C000000433A2F55EE
:100F8000736572732F6F6875642F4D6F647573543A
:100F90006F6F6C626F785F322E302F6C6962726196
:100FA000726965732F70736F633673772D312E32CC
:100FB0002F636F6D706F6E656E74732F70736F63D8
:100FC0003670646C2F647269766572732F736F75F7
:100FD0007263652F63795F6970635F706970652EF6
:100FE0006300433A2F55736572732F6F6875642FD2
:100FF0004D6F647573546F6F6C626F785F322E3013
:101000002F6C69627261726965732F70736F6336DA
:1010100073772D312E322F636F6D706F6E656E7426
:10102000732F70736F633670646C2F6472697665AA
:1010300072732F696E636C7564652F63795F697075
:10104000635F6472762E6800433A2F55736572733E
:101050002F6F6875642F4D6F647573546F6F6C627A
:101060006F785F322E302F6C6962726172696573BE
:101070002F70736F633673772D312E322F636F6D40
:10108000706F6E656E74732F70736F633670646CFF
:101090002F647269766572732F736F757263652F33
:1010A00063795F737973696E742E6300433A2F55C9
:1010B000736572732F6F6875642F4D6F6475735409
:1010C0006F6F6C626F785F322E302F6C6962726165
:1010D000726965732F70736F633673772D312E329B
:1010E0002F636F6D706F6E656E74732F70736F63A7
:1010F0003670646C2F647269766572732F736F75C6
:101100007263652F63795F737973706D2E6300432B
:101110003A2F55736572732F6F6875642F4D6F6426
:101120007573546F6F6C626F785F322E302F6C69FD
:10113000627261726965732F70736F633673772D96
:10114000312E322F636F6D706F6E656E74732F70FA
:10115000736F633670646C2F647269766572732F77
:10116000736F757263652F63795F6970635F647213
:10117000762E630000000000000000100000000850
:101180008000000098110010800000081802000084
:10119000EC020008E001000000093D0000127A00A6
:1011A00000093D000000D00700093D00A00F00002D
:1011B00004000000A900001081000010F7B56E4D7A
:1011C00004002A68536800931300B033198807237A
:1011D0004B43126A9B181A68002AFCDA00F0E0F808
:1011E0002A681300B033198807234B43212800D005
:1011F00096E0116A5B180221D8680143D960D9686A
:10120000C9072FD508208446944460461600D96843
:10121000C06F019111688836081835680768491948
:101220000D683902FF273F040F40694689882D0A5F
:101230002D0639432943D960902103684F4D090198
:101240002B400B430360136830681B181868054077
:101250002943196013686246D26F9A18126832687F
:101260009B181B68444D2A681300B0331988072364
:101270004B43126A9B1800225A600423404A1169AA
:101280000B431361012C50D030BF2A681300B033D8
:10129000198807234B43126A9B181A68002AFCDA44
:1012A00000F07EF8212842D1296807220B00012492
:1012B000B0331B8800205A430B6AD318DD682542DF
:1012C0001CD0080008300D68C06F2C4E2818056827
:1012D000DB6835401B0C1B061B0C2B4303600B000B
:1012E000883318680B6818180B6A0568D318DB6810
:1012F0002E401B0E1B023343036020000B6A0221A9
:10130000D218D3688B43D3601B4B1A681300B033D9
:10131000198807234B43126A9B1800225A60FEBDAE
:10132000126A9B18174ADA609CE720BFADE70020DD
:10133000009BFC331B698342E6D1A320124B134967
:10134000134A144FC0000E681D5814680F6006271A
:101350001F503E20106010483E371F501F58002F6E
:10136000FCDA00980D4FFC3007610E60A321C90024
:101370005D5001201460C7E7C8040008FF00FFFFAC
:1013800000ED00E09004000800002640080126401F
:10139000040126401E1F00001C050000AAAAAAAADC
:1013A00001B40248844601BC604700BF2D0900100B
:1013B000000000000000000000000000000000002D
:1013C000000000000000000000000000000000001D
:1013D000000000000000000000000000000000000D
:1013E00000000000000000000000000000000000FD
:1013F00000000000000000000000000000000000ED
:1020000000F80F08C36F03100D000000E534031043
:10201000ED340310F5340310FD340310000000000C
:102020000000000000000000000000003D4A031016
:102030002170031000000000D54A0310E54A031088
:102040002170031021700310217003102170031000
:1020500021700310217003102170031021700310F0
:1020600021700310217003102170031021700310E0
:1020700021700310217003102170031021700310D0
:1022E00010B5054C237833B9044B13B10448AFF350
:1022F00000800123237010BD783600080000000024
:10230000E493101008B5034B1BB103490348AFF326
:10231000008008BD000000007C360008E493101027
:10232000154B002B08BF134B9D46A3F5803A0021A7
:102330008B460F461348144A121A69F0E1FF0F4BFF
:10234000002B00D098470E4B002B00D09847002060
:10235000002104000D000D48002802D00C4831F087
:102360008FFD69F0ADF92000290032F033FA31F029
:1023700093FF00BF0000080000F80F0800000000F5
:10238000314703107836000864610508813E031068
:102390000000000070B5037A032B044636D0042BEE
:1023A00014BF00250A2504F10C0393E8070000F090
:1023B0003CFAE37E023005447BB104F1240393E848
:1023C000070000F032FA04F13003064693E80700F4
:1023D00000F02BFA304404300544236C0BB9A36C95
:1023E0003BB104F1400393E8070000F01EFA02300D
:1023F0000544E36C0BB9636D33B14C3494E80700CA
:1024000000F013FA02300544284670BD0C25CAE7D7
:10241000F7B50646019010460F461446FFF7BAFF7F
:10242000054600F071F9B8426EDC102101A800F0F9
:1024300095F92946019800F02FF9019B257A184457
:10244000042D01905AD1324901A800F0A0F9294683
:1024500001A800F083F9A37E00216FF3070163F365
:102460004101E37E003318BF012363F38201480773
:1024700041BF94F83D3063F3C40194F83C3063F3FA
:102480004511236C0BB9A36C0BB141F08001E36CD7
:102490000BB9636D0BB141F04001CDB2294601A8E3
:1024A00000F05CF9218B01A800F05EF904F10C0347
:1024B0000ECB01A800F07FF9E37E5BB104F12403A9
:1024C0000ECB01A800F077F904F130030ECB01A880
:1024D00000F071F92A0605D504F140030ECB01A8DE
:1024E00000F069F96B0605D54C3494E80E0001A89C
:1024F00000F061F90198801B03B0F0BD054901A807
:1025000000F045F90321A3E76FF00100F4E700BFF5
:10251000C8EF0710CDEF071073B502AC064644F8BC
:10252000082D20460D4600F013F900F0F000202899
:1025300016D101A9009800F0F9F8009B034400931C
:10254000019B012B0ADD204600F002F900F001009A
:102550003070204600F0FCF82870012002B070BDF9
:102560000020FBE713B5012904464FF0000301905A
:102570000EDD62F30713194601A800F0EFF8002101
:10258000019800F089F8019B1844001B02B010BDAF
:102590006FF00100FAE70C22FFF7E4BF2DE9F341E9
:1025A000002580461F4668460B9B00930E46144646
:1025B000019500F0CDF82B4660F3070300F0F00022
:1025C00030282BD1C3F3C00288F80020C3F34102A6
:1025D000C3F30003326001A92370009800F0A6F84D
:1025E000009C019B044400941C4405462246694615
:1025F000089800F002F988B1009BE31A002B0DDB6C
:102600003368002B03DD684600F09AF83880009BA1
:102610000A9AE41A1460099A01251360284602B048
:10262000BDE8F081F7B502AC064644F8083D204607
:102630000F46154600F08CF8002360F30703C3F340
:10264000C002C3F303133A7001A93370009800F07D
:102650006DF8009B03440093019B012B04DD204691
:1026600000F06EF82880012003B0F0BD094A13681D
:1026700070B51C460025E61AB14206DC0029A8BF49
:102680005B1805B11360084670BD14F8015B057056
:102690000125F0E79436000830B5441E802500205F
:1026A0004A4202F07F0201F07F0358BF5342DBB27F
:1026B00091FBF5F10029C8BF43F08003002900F128
:1026C000010004F8013FEBDC30BDF7B500240746FC
:1026D0000E460C6001250134052C11D001210DF1AD
:1026E0000700B84701280BD19DF80720316802F098
:1026F0007F0305FB0313336013064FEAC515EAD4C5
:10270000204603B0F0BD0000431C7F2B01DC0230EB
:102710007047B3F5804F01DA03307047024A9342A5
:10272000D4BF043005307047FEFF1F00024B186015
:102730000248FFF7CABF00BF943600086D2600109C
:10274000036819785A780233036002EB012070475E
:102750000368024613F8010B136070470368197091
:10276000036801330360704702684FF4807391FB84
:10277000F3F313700268531C03604B42DBB2C9B21F
:1027800058BF59425170036801330360704770B5F8
:10279000044608460E466BF013FD054601462046EA
:1027A000FFF7E2FF2A463146206869F0ABFC20685B
:1027B0002844206070BD30B585B004AC04E90E003B
:1027C000029C002C05460CDD2146FFF7CDFF22467A
:1027D0000399006869F096FC2B681C442C6005B0D6
:1027E00030BD019921B105B0BDE83040FFF7CFBF42
:1027F00005B0BDE83040FFF7B7BF0B68D31A012B17
:1028000070B505460C46164603DC002000232B60FD
:1028100070BD0846FFF794FF236868601844B04213
:10282000F3D8AB6020600120F0E784B004AB03E98B
:102830000700019810B104B06BF0C2BC029804B05C
:10284000704770B504680E468CB120466BF0B8FC3A
:10285000054630466BF0B4FC85420BD12A46314622
:1028600020466BF01BFDB0FA80F0400970BDD0E946
:102870000154EEE70020F9E71FB5044601A880E8FF
:102880000E0007C8FFF7D1FF069B02301844002C4A
:10289000C8BF023004B010BD2DE9F04F85B01F460F
:1028A000149E009610AC8B460390804692463846A4
:1028B00094E80E00FFF7E0FF8146FFF725FF58453B
:1028C0004FF000052DDC032363F307156AF3C305FE
:1028D0009DF8383067F3420563F30005E9B203A8B9
:1028E000FFF73CFF49460398FFF7D6FE039B1844C9
:1028F000039094E80E0003A8FFF75DFF002F04DDAE
:10290000BDF83C1003A8FFF72FFF32461399039838
:1029100069F0F8FB03983044A0EB080005B0BDE86F
:10292000F08F6FF00100F9E713B503290446019415
:102930004FF000001CDD62F3071063F3C300931F28
:102940005A425A4162F34200C1B201A8FFF706FFA2
:1029500002210198FFF7A0FE019BBDF8101018445A
:10296000019001A8FFF700FF0198001B02B010BD05
:102970006FF00100FAE72DE9F04106460F46022507
:1029800000244FF00C08B44202DB2846BDE8F08179
:1029900008FB047393E80700FFF747FF0330054483
:1029A0000134F0E72DE9F74FDDE90C758B46019016
:1029B00029460646384690469946FFF7DCFF824690
:1029C000FFF7A2FE58454FF000042EDC082363F306
:1029D000071468F3C304012363F34204E1B201A8BE
:1029E000FFF7BCFE51460198FFF756FE019B1844C5
:1029F0000190494601A8FFF7B7FE00244FF00C09EB
:102A0000BC4204DB0198801B03B0BDE8F08F09FBDA
:102A100004530ECB01A8FFF7CEFE0E9B01A813F8BE
:102A20002410FFF79BFE0134EAE76FF00100EBE7AB
:102A30002DE9F34702AD98460A9B45F8083D8146CB
:102A400028460F461646FFF783FE00F0F000902858
:102A500026D101A90098FFF769FE009CDDF804A0CB
:102A60000444BAF1010F00940BDD2846FFF768FE1D
:102A70000023A9F8000054443360009BA34203D311
:102A8000012002B0BDE8F0873368BB420ADC28466B
:102A9000FFF75EFE33685A1C326048F82300ECE70B
:102AA0000020EEE74FF0FF30EBE710B5044604F0EE
:102AB00066FB204610BD000038B500F224550446E0
:102AC0000022294601232BF007FA034B23602846F6
:102AD0002AF0CAFF204638BD3CD30A1010B5044680
:102AE000406810B103685B68984704F10C002AF055
:102AF000FEFD204610BD00002DE9F043064689B0DA
:102B00006846884617461D4604F0BFFB347A76684F
:102B1000002C48D1336829469B6A30469847002DDF
:102B20001BDA284D336808EB04015B693A1B304619
:102B30009847011E07DAA94206D0234869F02AFC0B
:102B40004FF0FF3402E00C44BC42EBDB684604F07B
:102B500016FB204609B0BDE8F083684604F084FB0C
:102B6000684604F01CFBDFF85C90336808EB040156
:102B70005B693A1B30469847011E08DA494507D081
:102B8000114869F007FC684604F036FBD8E70C44AE
:102B9000BC4204DA684604F05EFBA842E5DB684606
:102BA00004F02AFBD2E7002433683A1B5B6908EB88
:102BB0000401304698470028C2DB0444A742F3DCF6
:102BC000C4E700BF47F4FFFF2CF0071010B5044620
:102BD00004F041FB236A984234BF0020012010BD5D
:102BE00038B504460D4604F007FB2046256204F084
:102BF0003BFB2046BDE8384004F0D1BA38B5044666
:102C00000D4604F042FB20462946FFF7E9FF204627
:102C100038BD10B5046A04F01EFB201A10BD10B5B3
:102C2000C0E90123BDF808308381039B0361BDF82F
:102C30001030838241F2883383610023016080F881
:102C40002430C0E9073310BD81617047F8B51746DD
:102C50001E460D4681B9182031F042FB1822044669
:102C6000294669F04DFB069B6360BDF81C3023814B
:102C70002761A6822046F8BD0024FBE708B503685B
:102C80001B6E9847BDE808402AF050BB70B503683A
:102C9000044608465D6CFFF7F1FF2B4601462046CF
:102CA000BDE87040184700002DE9F0419846037ACE
:102CB0000E4686B00546D0E9001497B223BB2046E5
:102CC000FFF7E4FF10B1194869F002FC41462046C5
:102CD0002BF052F92868FFF7D1FF05F10C083B46AD
:102CE0003246014668462AF0EBFC694640462AF027
:102CF0009AFC68462AF0FBFC23684146DB682046C4
:102D0000984706B0BDE8F0810846FFF7B7FF0146D7
:102D100020462AF099F910B1054869F0D9FB3A46E6
:102D2000314620462AF0B0FEEBE700BF49F007101D
:102D300070F0071090F82521002380F8243180F8E6
:102D400088316AB1C0F82C31C0F83C31C0F84C3140
:102D5000C0F85C31C0F86C31A0F8F43180F8F6317D
:102D600070472DE9F04705460F4690460024BC42C7
:102D70001CDAD5F800A04046FFF74BFFDAF8040054
:102D800004F1080603682E44A7EB04091B694A46B0
:102D900031469847002803DA4FF0FF30BDE8F0874E
:102DA00004444046FFF712FF0028E0D0BC42F3D1B4
:102DB000D5F820010028F1D04FF47A71414305F194
:102DC000D000FFF70DFF0020E8E72DE9F74F074699
:102DD0000546084657F86C4B8846FFF71AFF012254
:102DE000034639462046FFF787FE0128044645D1B1
:102DF0004046FFF70EFFA14683464FF0050A002626
:102E0000BAF1010A12D05B4601220DF107012868D0
:102E1000FFF772FE012809D19DF8073003F07F0209
:102E20001B0609FB02664FEAC919E9D4314605F1D0
:102E30006D00FFF731FC0130C0F16403B34221DBC8
:102E4000002E0DDC95F86C40D5F820312409ABB18B
:102E50004FF47A71594305F1F800FFF7C1FE0DE018
:102E600007444046D5F80090FFF7D3FE32460346AC
:102E700039464846FFF740FEB042E3D0204603B053
:102E8000BDE8F08F6FF00104F8E7000030B52B4D7E
:102E90002B78BFF35B8FDB078BB004460ED428463C
:102EA00031F000F850B1264804F0EFF9284631F02F
:102EB0001BF8244A2449224830F0E0FFD4F820319E
:102EC0001BB9002528460BB030BD94F8243123B13E
:102ED0001B48FFF77BFE4542F4E704F1D000FFF703
:102EE00075FE80B14FF47A716846FFF787FE642162
:102EF00004F10800FFF74FFB011E0BDC00256846BC
:102F000004F03DF9DEE704F1F800FFF75FFE00286A
:102F1000E8D1D6E76A462046FFF723FF054600289A
:102F2000EDD1012384F82431D4F8203104484FF442
:102F30007A715943FFF754FEE1E700BF9836000865
:102F4000A0360008E0220008AB2A0010436830B425
:102F50007BB1026852B185686C10ED0702EB04008A
:102F600048BF125930BC48BFD3581847084630BC38
:102F7000184730BC70472DE9F74305460E46174603
:102F8000044600F150084FF0FF39D4F82C11B1B1CC
:102F90003046FFF756FC00283FD1D6E90123D4F88C
:102FA0002C111A44013911F8010FA0B39A4206D925
:102FB00093F800C0BCF12F0F1AD12F2829D010345C
:102FC000A045E2D1B9F1000F0CD0D5F87C3113B98E
:102FD000D5F8803143B1694605F5BE70CDE900767C
:102FE000FFF7B4FF4FF00009484603B0BDE8F08397
:102FF0002B2803D023280BD06045DFE7581C8242E2
:1030000007D093F801C0BCF12F0F02D00346F5E7BB
:10301000531E0133C7E79A42D1D1D4F830311BB9DE
:10302000D4F83431002BCAD0694604F59870CDE944
:1030300000764FF00009FFF789FFC0E72DE9F04364
:103040008FB005460F46FFF7C0FE0D2806465AD83A
:103050000123834040F215241C4061D113F4005831
:103060005BD11A075ED505F16C0303930DAB029398
:103070004FF064090CAB07AC0193CDF810900094AD
:103080000BAB0DF1290206A90DF12A00CDE9078845
:10309000CDF82480CDF83480FFF780FA012838D1AC
:1030A000069B8DF8283021460AAA2846FFF763FFC1
:1030B0009DF8284004B3012C0ED1BDF82C300093AC
:1030C00004224346494605F10800FFF72DFC00287D
:1030D0000ADC4FF0FF3616E0022CFAD1BDF82C3096
:1030E000009305224346EDE701463A462846FFF79E
:1030F00038FE431C0446ECD02846FFF7C7FE0028E4
:10310000E7D134B1264695F8883113B12846FFF748
:1031100011FE30460FB0BDE8F08385F82441EBE79F
:103120000024E9E70446ECE7F8B506460F461546E5
:103130004FF0FF342846FFF749FD40B92946304695
:10314000FFF77CFFB842044601D00028F2DA20469F
:10315000F8BDF0B585B0054616461F46FFF701FEDF
:103160000446B8B9012F21D1324604212846FFF781
:10317000DBFF04280CD1642300930DF10E0205F14E
:103180006C0303A90DF10D00FFF74CFA012805D0DF
:103190004FF0FF342846FFF7CDFD07E0B5F8F421E6
:1031A000BDF80E309A4201D1A5F8F441204605B091
:1031B000F0BD2DE9F041C56996B069689DF874606D
:1031C0000CA81F461446FFF719FD95F88831002119
:1031D000CDE909110B9153B94FF0FF340CA803F05E
:1031E000CEFF201C18BF012016B0BDE8F081731E71
:1031F000012B099435D8D5F828214FF6FF739A4250
:1032000014BF01320122C5F8282194B21C9BCDE9DC
:10321000057309AA07CA02AB83E8070005F108088D
:10322000002201940092334664214046FFF734FBAC
:10323000071ED1DD95F825315BB93A46414605F2C6
:10324000891068F05FFFA5F8F441C5F8F07185F8C2
:10325000F66133460CAA39462846FFF77AFF044642
:10326000BCE70C46D2E770B504468CB00D46416809
:1032700002A8FFF7C3FC94F888313BB14FF0FF354B
:1032800002A803F07CFF28460CB070BD2B8BC4F85D
:103290002031AB7E003318BF012304F108066421FE
:1032A00084F825312A463046FFF7B2F8011EE5DDE5
:1032B00002AA2046FFF755FD05460028E0D1D4F8C4
:1032C000203133B14FF47A71594304F1F800FFF71C
:1032D00087FC02AA02212046FFF726FF02281BD006
:1032E0004FF0FF35B4F8F43173B1642204F2891160
:1032F000304668F007FF94F8F631D4F8F01102AACE
:103300002046FFF726FF0546002DB9D1012384F89A
:10331000883184F82451B3E7002300938DF80430FA
:1033200004F16C026423694601A8FFF7F5F801284F
:10333000D6D1009DD6E7000082B02DE9F041A0B0C3
:1033400004460E46242026A981E80C0030F0C8FF70
:103350000746236847F80C3B05AB054611220021C0
:10336000184694F8248068F0CBFF0022029208AA45
:10337000034692E8030000908DF804100ECB384607
:103380002AF08BF885F80880B8F1000F18D14FF4B7
:10339000B76030F0A5FF0746FFF78EFB6F60256230
:1033A0002DB3716899B9384869F092F8236A216998
:1033B000A268586801B1E2B9344869F089F80BE0B5
:1033C000902030F08DFF07462AF04EFBE6E7686854
:1033D0002AF0CEFF0028E9D0256A35B12846FFF74C
:1033E0007DFB2421284630F0A5FF00232362012025
:1033F00044E02AF051FF0028EED1B28A31692A9BBD
:10340000206AFFF751FC06460028E5D14FF4FC7016
:1034100030F066FF236AA769054640F8D03B03F009
:1034200034FF05F1F80003F030FFC5F8286105F519
:10343000967305F5BE72C3E9016610339342FAD163
:10344000012385F825312846C5F87C61C5F88061DF
:103450006F60FFF76FFC58220D49E5610AA868F01C
:1034600051FE63680D93279B1A930AA9289B1D930D
:103470002846FFF7F8FE003018BF012020B0BDE855
:10348000F04102B0704700BF0CF107103AF107108D
:10349000D4EF07102DE9F04397B004468946416800
:1034A0001E9D8DF817200CA81F46FFF7A7FB0023D1
:1034B000CDE90A3394F88831CDF82490002B63D0FD
:1034C000D4F828314FF6FF7293420DF1170214BF62
:1034D0000133012302924FF0010809AAC4F82831F0
:1034E0000192642104F10800CDF800809BB2002213
:1034F000FFF758FA011E47DD0CAA2046FFF731FC02
:10350000064600284DD10CAA09212046FFF70CFEE3
:10351000092839D116AA642342F8386D2E60019328
:1035200004F16C03009341462B460DF11E00FFF79A
:103530007FFA404514D12B68802B11D0354604EB1F
:103540000518D8F82C0190B1494669F0EDFB70B927
:1035500007BBC8F82C71C8F83071C8F834713E4602
:103560000CA803F00CFE304617B0BDE8F08301351F
:10357000052DE4D147B1002504EB0513D3F82C3118
:1035800043B10135052DF7D12046FFF7D3FB4FF0AE
:10359000FF36E5E704EB0513C3F82C91C3F834714B
:1035A000DEE7431CDCD1EFE71FB511461A4603AB3B
:1035B0000093C069069BFFF76DFF003018BF012024
:1035C00005B05DF804FB000030B5B1F57A7F8BB033
:1035D0000C4605D2104868F07BFF01200BB030BDCF
:1035E000C569684603F051FE21466846FFF7F8FAC0
:1035F0006846FFF7EBFA60B969462846FFF71EFDFB
:103600000028F5DA4FF0FF34684603F0B8FD604259
:10361000E4E70024F8E700BF98F0071001207047A6
:10362000704700207047704710B54021044630F0C5
:1036300081FE204610BD00002DE9F04FD0F81CA0FF
:103640008BB004460D46BAF1000F03D100200BB039
:10365000BDE8F08F002967D1C668374F4FF00108E9
:1036600033785A1E012AF1D9B8F1000F42D1B5F8CA
:1036700004B0002B41D1D6F8089048466AF0A0FD6E
:1036800080B2CDE900905B463A4600215046FFF7F4
:10369000DDFA20620028D9D041F28831E069FFF7D5
:1036A000D3FA0023CDE90533079301238DF81230B7
:1036B0000897B8F1000F23D1EB88ADF810303378BC
:1036C00003BB736809930AAB13E90F008DE80F0081
:1036D00004ABD4E907010CCBFFF72EFE044698B1EA
:1036E000164917484BF0E4FA21464BF091FB4BF09A
:1036F00083F9ABE742F2B32BBBE74FF00009BCE71D
:103700000523DAE70023DDE70E490D484BF0D0FA38
:10371000B8F1000F06D129684BF0CAFA4BF06CF9EA
:10372000012094E70449F7E70F68002F8ED0E66880
:103730004FF0000894E700BFFD700A107FF10710FA
:103740002C480108B2F107102DE9F04F0446002380
:1037500061601546C0E90232154A037485B00F4610
:103760000260C0E90533FDB12B78EBB9D5F81080C4
:10377000D5F804A040466AF023FDD5F818B00646F7
:1037800058466AF01DFD0546282030F0A9FDADB26F
:10379000B6B28146CDE901B5009643465246394658
:1037A000FFF73DFAC4F81C90204605B0BDE8F08F45
:1037B000F8F2071037B50546C0690024A0B1A9B1D9
:1037C00000938DF8044013460A46296AFFF7F1FC7E
:1037D000054668B1074908484BF06AFA29464BF09C
:1037E00017FB4BF009F9204603B030BD0846FBE754
:1037F0000120F9E7CEF107102C48010813B5044663
:10380000C06948B151B1009200230A46216AFFF70E
:10381000CBFEB0FA80F0400902B010BD0846FBE7CD
:10382000C06908B520B1FFF7CFFEB0FA80F04009BB
:1038300008BD00002DE9F8431F460378013B012B2A
:1038400004468946904608D8164917484BF030FA86
:103850004BF0D2F80020BDE8F8834FF40051104639
:103860006AF09AFD4FF4005186B238466AF094FD32
:103870000EB185B20DB90D49E7E7B6F5005F02D08C
:10388000B5F5005F05D10A4907484BF011FA4BF036
:10389000B3F8C4F80490C4F81080A682A761A58389
:1038A0000120D8E7F5F107102C4801081AF207109B
:1038B0004CF207100378013B012B70B505460E460C
:1038C00007D80F490F484BF0F3F94BF095F800205B
:1038D00070BD4FF4804130466AF05EFD84B20CB991
:1038E0000949EFE7B4F5804F05D1084905484BF089
:1038F000DFF94BF081F8AE60AC810120E8E700BF52
:10390000F5F107102C4801088FF20710B7F20710E5
:1039100010B5054C204640F067FF2046034A044995
:10392000BDE8104030F0AABAC8360008E02200080E
:103930000D48041030B5002389B0CDE90633224B81
:103940001A46042552F8040B02901068039053F8AD
:10395000080F04909A889B79ADF81420294608AC8A
:1039600002A88DF81630019500F04FFA072344F8AD
:103970001C3D6E22214606A800F04CFA2A4606A9F4
:1039800003A868F08DFB90B9104868F0A1FD2146AE
:10399000642206A8019500F03DFA044638B165227C
:1039A0000B490C4868F0F6FC204609B030BD0722F0
:1039B00004A906A868F074FB20B1074868F088FDE8
:1039C0000124F1E70446EFE7480E0A106A0E0A10D8
:1039D0005B0E0A108B0E0A10A20E0A102DE9F0439E
:1039E000ADF5377D04460E46FFF7A4FF05460028D7
:1039F00041D1224B04211868019007230DEB0100EF
:103A0000029300F002FA642202A91DA800F002FA53
:103A100026B928460DF5377DBDE8F08394F802807D
:103A2000B4F800906422002104A868F069FC08F151
:103A300003074FF40072002136A868F061FC0123EF
:103A40003A4621460DF1D9008DF8D83068F05AFB7E
:103A500008F1040136A800F0D8F90723DC2203A9F5
:103A600004A8039300F0D6F94FF64C439945D0D102
:103A70003C44F61BCCE70125CBE700BF570E0A10EC
:103A8000FEE710B5ADF5826D19238DF800308DF885
:103A90000100130A000A14468DF802008DF8032075
:103AA0008DF804301AB10DF1050068F02BFB611D93
:103AB00089B2684600F0A9F90DF5826D10BD0000CD
:103AC0002DE9F74301233C48009368F001FD3B4B8F
:103AD0003B4A19683B48FFF781FF28B13A4868F034
:103AE000F7FC03B0BDE8F0833848394F394C68F033
:103AF000EFFC4FF47A703AF06DFB4FF0FF326946FD
:103B0000334800F087F93B78192BF6D102AD4FF01E
:103B1000020845F8048D4FF4006200212D4868F03A
:103B2000EFFB4FF0FF3229462A4800F073F920B12D
:103B300029492A4868F02EFCDFE7019B002BDCD0E6
:103B40004FF0FF3229462046267894F80190CDF8B0
:103B5000048000F05FF90028EAD1019B002BCCD053
:103B60006278237803EB022301939BB906EB0920CB
:103B70000312162B1ADC0121194A99400A40AAB1F6
:103B8000184A52F82330002BB7D0019A214680B250
:103B90009847B2E74FF0FF322946204600F03AF945
:103BA0000028C5D1019B002BA7D0DFE7CC220A4912
:103BB0000D4868F0EFFBA0E7DA0E0A1010F30710CB
:103BC00014F307105EF30710F80E0A101D0F0A1009
:103BD000C9360008C93E0008CA0E0A1003180A10A8
:103BE00007004000205C01083F0F0A1080B2FFF779
:103BF00048BF00007FB500F003F9044630B101462C
:103C0000124868F0C7FB204604B070BD4FF48055E1
:103C100018260290CDE900560D4B0E4A0E490F486A
:103C20003AF048F9044618B10D4868F051FCEAE74B
:103C3000CDE9016000950B4B0B4A0C490C483AF05A
:103C400039F904460028DED00A48EEE75D0F0A1075
:103C5000D85600088C0F0A10C13A0010D056000840
:103C60009C0F0A10D0460008CD0F0A10813A0010B0
:103C7000CC460008DC0F0A1016289DBF024B43F803
:103C80002010002001207047205C010870470000D0
:103C90002DE9F0411B4C0D46461E002785B32FF041
:103CA00039FE2FF037FE94F808882FF049FEB8F15E
:103CB000000F08D0D4F804380133B3F5006F08BF03
:103CC0003B46C4F80438D4F80028531CC4F8003824
:103CD000B3F5006F16F8011F08BFC4F80078D4F8D8
:103CE0000438A154D4F800289A4208BF012305F1F2
:103CF000FF3508BF84F80838EDB22FF021FECDE77C
:103D0000BDE8F081DC6600082DE9F041804600B195
:103D100021B92548BDE8F04168F0DABB0F6857B318
:103D2000224E34462FF0F6FD96F808382BBBD6F815
:103D30000038D6F80458AB4238BF03F500635D1B6A
:103D40002FF0FEFDAF42EDD8474400262FF0E2FDF4
:103D50002FF0E0FDD4F80028D4F804389A420FD1AF
:103D600094F8083863B92FF0EBFD08F101082FF043
:103D7000E7FDB845EAD1BDE8F0814FF40065DFE723
:103D80002FF0DEFDD4F804385A1CE35CC4F8042894
:103D900088F80030D4F8043884F80868B3F5006F68
:103DA00008BFC4F80468E0E710100A10DC660008D9
:103DB0004A1E431C0178024892B2006800F04CBAD7
:103DC000D866000808B500F04BFA034B1860BDE850
:103DD000084000F011BA00BFD86600080548064A3E
:103DE00006490023C0F80038C0F8043880F80838C5
:103DF00030F044B8DC660008E02200088D3C00107A
:103E000008B5FFF7DFFF002008BD08B5FFF7D0FFBA
:103E1000002008BD08B5FFF777FF002008BD0000AF
:103E200010B50D288AB00C4620D003D8052826D01E
:103E30000AB010BD40F20513984229D0B0F5837F37
:103E4000F6D12949294868F0A5FA2022002102A8C4
:103E500068F056FA002CEBD06278237803EB02234B
:103E6000ADF80E30A378ADF8123036E0204B8A1D45
:103E700014F8011B03F8011D9442F9D1D8E71A493F
:103E80001C4868F087FA0CB1237802931A4B25E09E
:103E900011461A4868F07EFA002CF7D02346E11D3F
:103EA00013F8012B8DF80C200DF1060213F8010B0D
:103EB00002F8010D9942F9D1227AE379CDF808D0C0
:103EC00003EB0223ADF80E30637A8DF81530022330
:103ED0008DF8143001238DF81030094B5B6802A96E
:103EE00000209847A4E700BF5D100A10EC100A10EC
:103EF000925C0108A5100A10845C0108CC100A101D
:103F00007C5C01080B4B0C4910B558600020FFF792
:103F1000B3FE09490120FFF7AFFEFFF76BFE07492B
:103F2000044620B1064868F035FA204610BD054821
:103F3000F9E700BF845C0108213E001049100A1017
:103F40006D100A1092100A102DE9F04106460C4639
:103F500031483249154668F01DFA41F2B3639E427A
:103F600027D00BD8052E42D041F2B2639E4247D0F3
:103F70002B492C48BDE8F04168F00CBA41F2B96316
:103F80009E4222D041F2FE639E42F1D1023D28467C
:103F900014F8026B67F006FD2A462146074668F0D2
:103FA000B1F8214B2A46394630469B68BDE8F041BE
:103FB000184724781D48214668F0ECF91A4B214631
:103FC0001B680120BDE8F0411847194868F0E2F984
:103FD000284667F0E7FC21462A46064668F092F834
:103FE000114B294630465B68BDE8F041184711483F
:103FF00068F0D0F94FF47A70BDE8F0413AF0EAB8D1
:1040000024780D48214668F0C5F9074B2046DB6847
:10401000BDE8F041184700BF03180A1026110A1026
:1040200014110A1038120A10945C010887110A1042
:10403000BB110A10DF110A1001120A1038B50E491F
:1040400005460E4868F0A6F90121084666F078FAA0
:10405000044675B10323038000250122214641F265
:10406000F160A570FFF7C2FD204667F0A3FC28466B
:1040700038BD0580F0E700BF38110A1003180A1098
:1040800070B50C4606460C490C4868F083F90121CE
:10409000204666F055FA22460546314668F032F869
:1040A0002246294641F2F260FFF7A0FD284667F05C
:1040B00081FC002070BD00BF54110A1003180A10C3
:1040C000F8B507460E460B480B4915461C4668F0E6
:1040D00061F90A491620C1E90076C1E9025408498C
:1040E000FFF7CAFD0122002141F2EF60FFF77EFDDC
:1040F0000020F8BD03180A1074110A10945C01081E
:10410000493F001070B5114D11490246044611484F
:1041100068F040F92E6826B9082030F0E1F8066012
:1041200028601A2C0DD801210B4B01FA04F2134020
:104130002BB934B92A685368116003B1984700203D
:1041400070BD2146054868F025F9F8E7E86E0008DB
:10415000D6120A104E120A10522C8C075E120A1048
:1041600038B504460D46044868F0B2F96560034866
:10417000FFF7C8FE002038BD8C120A100541001060
:1041800038B5036813B9084868F0A2F9074C2568E8
:104190003DB9082030F0A4F8012303704570456054
:1041A0002060206838BD00BFA6120A109870000871
:1041B000704710B51021044630F0BCF8204610BD01
:1041C00010B5054B0360054B044640F8043F02F070
:1041D0008FFF204610BD00BF00130A102C360A10B6
:1041E00010B50446FFF7ECFF20464FF4CA7130F0DB
:1041F000A1F8204610BD000038B50446406800F024
:10420000C5F8E468631C04D138220F490F482FF029
:10421000BDFA0F490968C4F307428D690E2AE4B25A
:10422000D8BF05EBC215072C04DD40F23131094837
:104230003EF078FF0123A340AB604FF4FA70BDE875
:10424000384030F033B900BF18130A1054130A1065
:104250003C5F050873130A10406800F0E9B80000DD
:10426000F7B5324F3D78BFF35B8F15F0010538D1BC
:1042700038462FF017FEA0B32D4C2E4B2E4920466A
:104280004FF4403240F8043B4FF4E13302F0A8FD14
:104290004FF00313C4F87C312849C4F88411013B62
:1042A0004FF48026C4F88031C4F88861C4F88C517A
:1042B00006232A4604F5C67000952EF0D7FE01228B
:1042C0003146C4F890512B46009204F5C8702EF088
:1042D000CDFE38462FF008FE194A1A4920462FF025
:1042E000CDFD194E3578BFF35B8F15F001051AD15E
:1042F00030462FF0D7FDB0B1144C154B1549236053
:1043000020460B4BA160636040F80C5F0122022342
:1043100000952EF0ABFE30462FF0E6FD084A0E4920
:1043200020462FF0ABFD094803B0F0BDF06E000849
:10433000046F000800130A100100030005000300C9
:10434000E0220008C1410010EC6E0008F46E000885
:1043500010130A1004000300B1410010034610B10D
:1043600007C983E807007047704710B44468816844
:1043700062100346E40701EB02001B6848BF8A583D
:104380005DF8044B48BFD3581847000030B50446C9
:10439000051D85B0012300220821284602F096FD64
:1043A000D4F87C31D4F880210321284602F0D1FDD5
:1043B000194B00930022194B039369462846CDE917
:1043C000012402F05BFE039B13B19B68684698478B
:1043D000D4F89041631C04D13822114911482FF0C0
:1043E000D5F911490968C4F307428D690E2AE4B270
:1043F000D8BF05EBC215072C04DD40F231310B4864
:104400003EF090FE0123A3406B604FF4FA7030F051
:104410004DF805B030BD00BF99440010C4130A1018
:1044200018130A1054130A103C5F050873130A107E
:104430002DE9F8438846164699460D460024071D87
:10444000384602F06BFD0028FAD001342946384680
:10445000A4B202F0DEFCA64202D23046BDE8F883E8
:1044600024B109EB040313F8015CE9E74546E7E7EB
:10447000F8B5084F05460C465CB1FF2C264628BF10
:10448000FF2628463B68F1B2A41B9847A4B23544E6
:10449000F2E7F8BDE422000813B5041D204602F03F
:1044A0002CFD50B1204602F0A5FC01218DF807003B
:1044B0000DF10700FFF7DCFFF0E702B010BD0000D0
:1044C00038B5064C25683DB908202FF009FF0123B7
:1044D0000370457045602060206838BD9870000802
:1044E00038B5054C256825B908202FF0F9FE056080
:1044F0002060206838BD00BFE86E00081FB5014687
:104500000446084867F046FFFFF7EAFFFFF7D8FFC9
:1045100043688DF8044013B101A90320984704B003
:1045200010BD00BFD0130A107FB50D460646FFF739
:10453000D7FFFFF7C5FF446801968DF8085014B106
:1045400001A90020A04723462A460349034867F0F3
:1045500021FF04B070BD00BF52150A106A140A1082
:104560007FB50D460646FFF7BBFFFFF7A9FF44687E
:10457000CDE9015614B101A90220A04723462A46DD
:104580000249034867F006FF04B070BD2C150A10FD
:10459000ED130A10F0B585B00E4615460746FFF735
:1045A0009FFFFFF78DFF44680197CDE9025614B1D4
:1045B00001A90420A04723462A460349034867F07F
:1045C000E9FE05B0F0BD00BF3F150A1036140A1011
:1045D00008B5054867F07CFF044B054A05490648C5
:1045E000FFF76EFD002008BDA7140A10FD4400105F
:1045F00095450010614500102945001008B5044894
:1046000067F066FF0120FFF719FD002008BD00BF1D
:10461000CE140A1008B5044867F05AFF0020FFF7CF
:104620000DFD002008BD00BFEC140A1038B5054888
:104630000C46154667F04CFF29462046FFF720FD43
:10464000002038BD0F150A10014867F041BF00BFB8
:10465000EB150A1038B5062204460E49006869F0C9
:104660001DFE0546A0B9A368A2890A490A4867F059
:1046700091FEA289531E752B06D8084BA1681846D7
:1046800067F040FDA28985540449054867F082FE21
:10469000002038BDD52710103D170A109C70000867
:1046A00077170A102DE9F0410B4605460C460246E5
:1046B00049494A4867F06EFE042D00F28A80DFE81F
:1046C00005F0038814757A00002C00F082802179AF
:1046D000434867F05FFE2379002B7AD1414B0122DA
:1046E0001A70BDE8F04100F001BC002C71D0D4E993
:1046F00000573D482A4639466C1C67F04BFE204661
:1047000067F050F92A4606463946013067F0FAFC50
:104710001FFA85F8012321463046337000F016FB5E
:10472000B8F1000F3FD040464000013067F03AF941
:104730004FEA4805ADB2044620B300217A5C4FEA47
:10474000410C4FEA221E5FFA8EF3BEF1090F1FFAE9
:104750008CFC02F00F02D4BF303337330CF1010070
:104760000131092A04F80C3080B28BB294BF303288
:10477000373298452254E1D80023635521461B481F
:1047800067F008FE21461A4867F004FE194B986846
:1047900020B12B4622461849FFF70CF83046BDE8F9
:1047A000F04167F007B945464446EBE71348BDE8DA
:1047B000F04167F08DBE64B1D4E901322168104840
:1047C00067F0E8FDD4E901212068BDE8F04100F080
:1047D000D1BBBDE8F08100BFAE180A1020160A1048
:1047E00045160A103871000869160A108B160A104F
:1047F000A5160A101C710008D6160A10E1160A1038
:1048000004170A1007B5FFF76BFEFFF7B9FCFFF7B7
:10481000F5FE02A84FF4807320F8043D022100F059
:1048200095FA054B986820B10123044A0449FEF724
:10483000C1FF03B05DF804FB1C710008CF6F0A10C4
:104840006E150A1007B5FFF74BFEFFF799FCFFF74F
:10485000E1FE02A8002320F8043D022100F076FAD0
:10486000054B986820B10123044A0549FEF7A2FFD1
:1048700003B05DF804FB00BF1C710008C4AC0A1053
:104880006E150A1038B503680E48D3E90245224672
:10489000294667F07FFD012D12D12378312B06D1F7
:1048A000094867F015FEBDE83840FFF7ABBF302B75
:1048B00006D1064867F00CFEBDE83840FFF7C2BFDE
:1048C00038BD00BF09180A105F180A1085180A10B1
:1048D0002DE9F743074669F073FC440804F1080624
:1048E0003046019467F05EF80546C8B132460021B3
:1048F00067F006FD2C6004F10044013C002607EB44
:1049000044042B68B3420BD9012301AAA4EB46004F
:1049100002213FF09BFCAB19019A1A710136F0E7B6
:104920002868DFF87490083067F03CF804461748B0
:1049300067F0CEFD04F10408002647462B68B34219
:104940000AD9013B9B1B2B444846197908F8011BE7
:1049500067F020FD0136F1E723600D4867F0B8FDF0
:1049600021680C4867F016FDFFF7BAFDFFF708FC59
:1049700022783946FFF75AFE284667F01BF8204692
:1049800003B0BDE8F04367F015B800BF82150A1008
:10499000A9150A10B4150A10A2150A1038B5036833
:1049A0000A48D3E902452946224667F0F3FC294626
:1049B00020463EF0A9FF18B90549064867F0EAFC11
:1049C0000348BDE83840FFF783BF00BF8F170A10C8
:1049D0009C700008D8170A102DE9F043744E8BB074
:1049E000002142F2107430464D1C67F0D3FC4FF4A6
:1049F000C8702FF05BFDA5422946F4D128F03BFC9E
:104A00006C4C6D4920606D486D4F6C4E4AF050F90A
:104A100049F0F2FF0325206803689B6B9847002844
:104A200000F0A080394630464AF042F949F0E4FFF0
:104A3000013DF0D1634961484AF03AF949F0DCFFA1
:104A40006148A5E00AAE614B06F8200D604A614955
:104A50001B68126809683046FEF7ECFE012810D08A
:104A60005D4956484AF024F949F0C6FF5B4953486E
:104A70004AF01EF949F0C0FF4FF0FF300BB0BDE81F
:104A8000F083574B30461968FEF714FF012801D018
:104A90005449E6E740202768DFF88081DFF88091FD
:104AA0002FF01EFC324639460546FEF74DFE4E4BB2
:104AB0004E4F1D602846FEF7B1FD4D4B009342F26C
:104AC000B32301932B68A5601B6969462846984764
:104AD00003263946404667F05DFC4A46394628467B
:104AE000FEF78CFE012805D0013EF2D1414867F067
:104AF000EFFCBBE7404FDFF82481DFF82891032665
:104B00003946404667F046FC4A4639462846FEF795
:104B100075FE01283FD0013EF2D1E7E700F06EFAC2
:104B200008B1364834E0FFF7DBFC354960600546E4
:104B3000FFF716FB2B681BB964202FF0B7FCF9E7D1
:104B40002846FFF71DFB0546FFF742FD2D4B6B6026
:104B5000A06818B14FF47A71FEF762FEC8202FF0FA
:104B6000A5FCF5E7284915484AF0A2F80546206853
:104B700003681B6A9847014628464AF099F849F0AD
:104B80003BFF206800F06CF900283FF45BAF1F4842
:104B900067F09EFC70E71E4867F09AFC64202FF0D7
:104BA00085FC1C483EF0AAFE0028B7D01A495EE7F3
:104BB000C2180A101C710008EA180A102C480108D3
:104BC0000A190A109D1A0A10CB1A0A10F0220008BE
:104BD000F4220008E822000857190A10171A0A10D0
:104BE000EC2200088B190A1014710008D8190A1059
:104BF000A9190A104E320A100D1A0A10711A0A1059
:104C000049460010A5460010F01A0A1034190A107F
:104C10002A1B0A1055460010431A0A10EB190A10F5
:104C2000854800109D49001010B5054C20463FF006
:104C3000DBFD2046034A0449BDE810402FF01EB9B1
:104C400018710008E02200080D48041008B5044956
:104C5000044867F09FFBFFF7F5FD002008BD00BF8B
:104C6000F82C0A10AB2C0A1073B50C4D0C490D48EA
:104C70001646002467F08EFB0A232246CDE9004346
:104C800031462346286800F0E2FA3146286800F0F1
:104C9000F1FAFFF7B7FD204602B070BD2871000899
:104CA000DE2C0A10AB2C0A102DE9F341104D114CEB
:104CB000114E174680462946104867F06BFB39466F
:104CC0002068376000F0D3FA00230B22CDE90032D0
:104CD000316820681A4600F0BAFA42460446034694
:104CE0002946074867F056FB204602B0BDE8F08130
:104CF000152D0A10287100082C710008AB2C0A1021
:104D0000B72C0A1038B51546002210F8013B2BB11C
:104D10002F2B08BF0132042A0346F6D10A4C18464D
:104D2000FFF7D6FD2946206800F0A1FA2946206841
:104D300000F09AFA2946206800F09FFA2946206878
:104D400000F098FA002038BD287100082DE9F047DE
:104D5000384DD5F8009007468846B9F1000F05D1C7
:104D6000354867F0B5FB3548BDE8F08700B109B9B3
:104D70003348F6E74800013066F014FE044608B9EF
:104D80003048EEE7304E314A3068DFF8D0A049466F
:104D9000012300F057FA0A232D4A2968306800F0F1
:104DA00051FAB946A9EB0703984505DD19F8011B2F
:104DB000504667F0EFFAF5E70022BB5C19090929B4
:104DC00094BF3031373103F00F0304F81210510053
:104DD000092B214402F1010294BF3033373390454F
:104DE0004B70EAD1002304F818302146194867F0C7
:104DF000D1FA204669F0E4F9224603462968306872
:104E000000F020FA0323144A2968306800F01AFAE7
:104E10002968306800F031FA3B7833B97F7827B9D8
:104E20002968306800F026FA2F60204666F0C2FD3F
:104E3000002099E72C710008572B0A100900020E78
:104E40009E2B0A10C42B0A10287100088D2C0A1002
:104E5000A02C0A10F72B0A10892C0A1003B80A108C
:104E60002DE9F34198B1194D002468604FF42E707C
:104E70002C702FF035FA2946154D06460423502292
:104E800000F048F92E6026B9124867F021FB12485D
:104E900018E0124EDFF85080114F56F8241008EB3E
:104EA000C40300933A4604232868013400F0A0F9B3
:104EB000042CF2D1286800F053F90146094867F044
:104EC00069FA002002B0BDE8F08100BF307100082F
:104ED00028710008222C0A100900020E902C0A10DA
:104EE0004F2C0A10602C0A10F822000813B51A483B
:104EF00069462CF0F5FA0446184867F04BFAC4F3FB
:104F00004173032B18BFA4B2231C18BF01231BB18C
:104F1000134867F0DDFA07E0009940F6F632914257
:104F200005D0104867F036FA012002B010BD0A46DD
:104F300009480D492CF084FAC0F34173032B18BFC4
:104F400080B2041C18BF01240CB10848E1E70848EE
:104F500067F0BEFA2046E8E7372E0A10112F0A1034
:104F6000402E0A102B2F0A1038710008642F0A10E7
:104F70000A2F0A10F8B506461E48174600234FF0C0
:104F8000FF324FF0CC0C04460CFB0305AD88AE425B
:104F900008BF1A4601330F2BF6D1531C10D0CC2575
:104FA0005543A81D20442C443A46F6B267F0AAF8AF
:104FB000A770A680FFF79AFF003018BF012008E015
:104FC00065786B1C0E2B05DD19460B4867F0E2F97E
:104FD0000120F8BDCC255D43A81D3A46204467F06A
:104FE00091F863782544F6B20133AF70AE806370F8
:104FF000E0E700BF38710008902F0A1010B539485B
:10500000ADF5406D67F064FA694637482CF068FAF0
:10501000C0F34173032B18BF80B2003018BF0120CA
:10502000002832D0314867F0B5F940F6F632002159
:1050300002A867F065F9002340F6F63202A92A4873
:105040002CF0FEF9C0F34173032B18BF80B200307F
:1050500018BF012020B1264867F03AFA01203DE050
:10506000244867F035FA244867F094F969461E48E9
:105070002CF036FAC0F34173032B18BF80B2041C26
:1050800018BF012434B31D48E6E71D4867F082F9D4
:10509000009A40F6F6318A4203D01A4867F07AF94E
:1050A000DCE702AB184910482CF0F4F9C0F3417367
:1050B000032B18BF80B2041C18BF01240CB1134885
:1050C000CAE7029940F6F633994203D0104867F0D8
:1050D00061F9C3E7074867F0FBF920460DF5406D1D
:1050E00010BD00BF7C2D0A10372E0A10A32D0A1008
:1050F000642F0A100A2F0A10D62D0A10402E0A100B
:10510000FA2D0A10662E0A1038710008AA2E0A100D
:10511000DA2E0A1038B500250446C38080F8A8525C
:1051200001608280A0F87C50C0F848512946742262
:10513000083067F0E5F82946C82204F1800067F0DE
:10514000DFF84FF4AE72294604F5A67067F0D8F880
:10515000C4F8AC52C4F8B052C4F8B452204638BDBA
:1051600030B5B0F87C20092A85B004463BD814231A
:1051700003FB0203002183F88810C3E92011C3E96F
:10518000231190F8A8120132A0F87C2029B3D0F89E
:1051900048118B898A88009300F5A6758B68096889
:1051A000284601F0E9F9B0B9D4F84831998A18696C
:1051B00001F04EF878B904F52B71CDE90101E388CF
:1051C000A288C4F8AC5204F18001009104F10800F7
:1051D000216800F07FF805B030BDC3888288029155
:1051E00001210191EFE70148F5E700BF0900020E38
:1051F000F0B5B0F87C40059E092C1ED8142505FB9F
:105200000407012B87F88830C7E9201201D0042B4E
:105210000CD105FB04033268C3F88C207268C3F814
:1052200090200134A0F87C400020F0BD0BB1032B8E
:10523000F7D1142303FB0403EDE70148F5E700BFB2
:105240000900020E084611461A4600F0F5B910B4DE
:105250009DF80840084611461A469DF8043001940E
:105260005DF8044B00F04CB9084600F0E7B808467A
:1052700000F0E0B8084600F017BA084600F012BA8D
:10528000C368D868431A58425841704707B5042389
:1052900002A98DF80430002341F8080D1A4603488E
:1052A00038F03EFF03B05DF804FB00BFA45C0108CA
:1052B00007B5022302A98DF80430002341F8080D38
:1052C0001A46034838F02CFF03B05DF804FB00BF1A
:1052D000A85C01082DE9FF47044688469146002155
:1052E00074221E4604F1600A67F00AF80C9BE3641E
:1052F000504677013EF0B4FF384666F053FB054652
:105300002065002879D03A46002166F0F9FF002791
:10531000BE4218D804F154003EF0A2FF0822142126
:10532000374838F0BBFEC8B1364D374803680BB17B
:1053300038F022FF324803680BB138F01DFF206DB2
:1053400066F038FB53E0294628463EF0A7FF294681
:1053500050463EF0D7FF01372035D9E708220A2111
:10536000294838F09BFE0028DED104F1440741F2C1
:1053700070754FF0180A0294CDE9005A234B244A65
:105380002449384638F096FD002834D1CDE901A4EF
:105390000095214B214A224904F1400038F08AFD52
:1053A00048BB9DF83430009304F1080A33464A465E
:1053B0004146504600F0D8FE054680B1504600F008
:1053C000A9FE184D636C13B1384638F0D9FD236C33
:1053D000002BAAD004F1400038F0D2FDA5E70E9BC7
:1053E00011491B68E36204F10C0000F05FFE2846DF
:1053F00004B0BDE8F0870D4DE4E70D4DF7E700BFC1
:10540000A85C01080300020EA45C0108A094000837
:10541000A6300A10E5560010307D0008B5300A109D
:105420003D5B00100400020E8D5200100200020EBF
:105430000100020E0123037100207047037910B5AB
:10544000044613B90020207110BD0522024900F066
:10545000E1FD0028F6D0F7E7D82F0A10F0B5134683
:1054600015780446013289B9013B13F8010F2A2847
:10547000FBD0B0FA80F04009F0BD2378AB4200F1D8
:10548000010001D03F2D21D10139E8E72A2DF4D1C7
:105490000022154610461E782A2E0AD03F2E02D032
:1054A0002778B7420CD10133013401390029F2D1F8
:1054B000DAE75A1C5B785BB1481E651C1346EAE7C5
:1054C0002C460146134601350138EFE70020D3E7AB
:1054D0000120D1E70144F8B517461E4604468DB2B7
:1054E0002A1B92B2964202D900242046F8BD3246C9
:1054F0003946204668F0D2FE0028F6D00134EFE7A6
:105500002DE9F04385B004460E46904600210F2257
:10551000684699469DF8305066F0F2FE3C4B53F8D1
:105520002670384668F04CFE39460246204600F0A8
:1055300071FD002852D102223649204600F06AFD52
:1055400000284BD10E223449204600F063FD00288C
:1055500044D1324B53F82570384668F031FE394655
:105560000246204600F056FD002837D10222294984
:10557000204600F04FFD88BBB9F1000F21D00C2E62
:105580002FD127491122204600F044FD30BB0222D2
:105590002049204600F03EFD00BB237923B321497A
:1055A0001A22204600F036FDC0B9022219492046D1
:1055B00000F030FD90B902221649204600F02AFD85
:1055C0000CE05F221849204600F024FD30B9022289
:1055D0001049204600F01EFD0028D0D005B0BDE8DF
:1055E000F08316221149CEE70B2DE4D04246104934
:1055F000684667F081FA10220E49204600F00AFD45
:105600000028EBD1684668F0DBFD69460246C8E732
:10561000C4300A10DB2F0A10E22F0A1004310A10DE
:1056200051300A107A300A10F12F0A1063300A1034
:105630001E8D0A1095300A107FB504460D46164699
:1056400042B30379BBB100231349ADF80C3001A874
:10565000CDE9013367F050FA01A868F0B1FD01A966
:105660000246204600F0D6FC90B902220B492046A3
:1056700000F0D0FC60B932462946204600F0CAFC52
:1056800030B9237923B102220449204600F0C2FC3C
:1056900004B070BD0248FBE7DE2F0A10DB2F0A10B2
:1056A0000900020E00F0E8BC07B578B103686BB1E1
:1056B00002A9012241F8083D00238DF80420044886
:1056C0001A4638F02DFD03B05DF804FB0148FAE7F7
:1056D000A85C01080600020E00224260026002710E
:1056E00000F090BC2DE9FF470023DFF8D490019330
:1056F000044600F10808002594F8482002F0FF0352
:1057000012B104B0BDE8F0874FF0FF3202A948465D
:1057100038F01CFD0028F4D19DF80C30032B01D18A
:1057200038F02AFC04A9404641F8105D00F0DCFB8B
:105730000028E1D12049009800F0A0FC009A1F4900
:10574000D26804F1540501AB28463EF0BFFD0028A5
:10575000D1D004F1600601A930463EF0EBFD70B1F6
:10576000676DDFF858A037B101AB002251462846DB
:105770003EF0ACFDA8B101A930463EF0DBFD019939
:1057800028463EF0BFFDDDE900100C30FFF7A4FF16
:105790000199009800234B618B61CB61FFF788FD75
:1057A000A9E7019928463EF009FE019930463EF0EE
:1057B000A9FD013FD7E700BFB15200108152001090
:1057C000A45C010818B103680BB100F01EBC0148CD
:1057D000704700BF0900020E2DE9F0410026202786
:1057E000B446B4B253B18C4201D10C4606E01478F1
:1057F0005D1E252CADB235D11DB900242046BDE873
:10580000F081541C5278252AF7D0012D80F800C071
:10581000F3D0033B9BB2224604782401E4B2047027
:1058200092F800E0AEF13008B8F1090F0CD8303C26
:10583000013D7444ADB2047005B10132AB42EBD10D
:10584000013001362B46CCE7AEF16108B8F1050F07
:1058500001D8573CECE7AEF14108B8F1050FCCD8C0
:10586000373CE5E72B2C0CBF07700470002DE8D007
:105870000132E5E72DE9F0410646B0B1DFF83080AE
:10588000002558F82570384668F09AFC39460246DB
:105890003046ECB268F002FD20B101350134102D24
:1058A000E4B2EED12046BDE8F0811024FAE700BF53
:1058B00004310A102DE9F04190461F46174A069E12
:1058C00009230446FFF706FE054628B304221449BF
:1058D000204666F0E5FB18B988F80000043409E0BA
:1058E00005221049204666F0DBFB40B9012388F809
:1058F000003005343C602C1B3480BDE8F08104226C
:105900000949204666F0CCFB18B9022388F800301C
:10591000E4E7032388F800300448EEE748310A1032
:1059200052310A1057310A105D310A100900020E77
:105930002DE9F041079D06460F469046D3B11C461F
:1059400022680AB90C4811E039463046FFF786FD57
:1059500070B16068FFF78EFF287098F80D3098429C
:1059600001D0102B04D1069B00201C60BDE8F08103
:105970001434E5E70148F9E70700020E0900020EBA
:10598000F0B585B016468C461946102200230A9FB2
:1059900003938DF80B207354054632460B4614468C
:1059A00012F8010B3F281DD0F3B1C8B9C91A002362
:1059B00004F8013B0DF10B03019303AB00933A464E
:1059C00063463046FFF7B4FF80B9039AAA60137AA2
:1059D000052B00F2A580DFE803F0451794583794B3
:1059E000013BDCE7002BE1D11C46E3E70023092261
:1059F0000092AB601A4606212846FFF781FD284633
:105A000000F03AFB04462AE001232B719DF80B308D
:105A1000009300231A4619462846FFF771FD039BA1
:105A20000097D3E9037321462A463046B847EB680E
:105A30000446A3B92846FFF701FD284600F01CFBE9
:105A4000002818BF04460AE00097D2E903732146F4
:105A50002A463046B847EB680446002BEDD0204676
:105A600005B0F0BD9DF80B300093126901230021B1
:105A70002846FFF745FD039BD3E903122846FFF7AD
:105A8000DBFD04460028EAD1B9E70C222549284667
:105A9000FFF7D2FD04460028E1D102222249284620
:105AA000FFF7CAFD04460028D9D10A221F4928461B
:105AB000FFF7C2FD04460028D1D1039B2846D3E955
:105AC0000312FFF7B9FD04460028C8D10222164987
:105AD0002846FFF7B1FD04460028C0D11022144922
:105AE0002846FFF7A9FD04460028B8D10122114934
:105AF0002846FFF7A1FD04460028B0D104220E4934
:105B0000BCE701232B719DF80B30009300231A464C
:105B100019462846FFF7F4FC2846FFF78FFC6EE78E
:105B200000249CE762310A10DB2F0A106F310A1043
:105B300095300A10C4AC0A10D92F0A102DE9F04F85
:105B4000ADF2046D002307460A93A94C97F848204C
:105B500002F0FF032AB138F00FFA0DF2046DBDE830
:105B6000F08F4FF0FF320DA9204638F0EFFA0028F1
:105B7000F3D19DF83830022B15D0032BE6D1012349
:105B800087F8483007F154040FA920463EF08EFBF9
:105B90000F990029D9D020463EF010FC0F980C3008
:105BA000FFF710FEF0E70D9B0493049A9149D26829
:105BB00007F15403039303980AAB3EF087FB0028D8
:105BC000C3D10DF14C0940F2B4524946049800F09B
:105BD0000FFA894B98428446B7D000280FAC3CDCC2
:105BE000049A8449D268039823463EF06FFBB8B903
:105BF0003B6F20680BB10C309847216803983EF04A
:105C0000DDFB216807F160003EF07CFB20680C3072
:105C1000FFF7D8FD049907F1080000F049FA94E76E
:105C20007D6D744E07F16008002DF3D023460022ED
:105C3000314603983EF04AFB0028EBD13B6F2068C9
:105C40000BB10C309847216803983EF0B7FB2168F0
:105C500040463EF057FB013DE6E7684B0A9ECDF813
:105C600030900FCB84E80F00FB6EADF826C0002506
:105C700006F10C080B95ADF8245063B10DF1260226
:105C80000CA94046984730B15D4BC31A18BF012399
:105C900005932C4652E00C9DBDF826B0594A1123BD
:105CA00059462846FFF716FC031C706918BF0123EC
:105CB000059340B3037A042B01D0012B23D1B369A0
:105CC0000BB3A3EB0B039BB2B361A360337F63738E
:105CD000737F2560A4F804B0A3730094D0E9034354
:105CE000424600210068A047B369002B7FF469AFEA
:105CF00073691B7A012B02D14046FFF79FFB404698
:105D000000F0BAF95DE7404B1C683CB904233F4AF8
:105D100059462846FFF7DEFB002846D1DFF8F4900D
:105D2000D9F800A0D344BBF5005F12D9204665F036
:105D300041FE354B00241C60C9F80040204665F048
:105D400039FE059B002B3FF43CAF4046FFF7ACFC0F
:105D500037E75946204666F0C5FB054638B9204668
:105D600065F028FE284BC9F800501D6091E7BDF88A
:105D700026200C99504466F0C5F9234BC9F800B0B1
:105D80001FFA8BFB1D60214A042359462846FFF762
:105D9000A1FB04460028D1D01B4A0C950023ADF886
:105DA00026B01360C9F800302C46BDF82610112922
:105DB000C4D909AD0BAB00950DF14A020C98FFF761
:105DC00079FD134B9842B9D00B9A2B88104619468F
:105DD000FFF702FDDDF83090BDF826A00790042300
:105DE0000A4A51464846FFF775FBA8B90F90A5E748
:105DF000A85C01088152001047F4FFFFC82F0A1069
:105E00000800020E51300A1014AC0008D92F0A10F5
:105E10000900020E10AC0008043009EB0A0B5845CB
:105E200009BF00230F900F93ADF84030264A0E2390
:105E300051464846FFF74EFBF8B10F9B98421CD2E3
:105E40000E30FFF717FD8DF849001A231F4A5146FF
:105E50004846FFF73FFB0FAD069090B1296801233C
:105E60002B7311B1ABEB0101A9800095079B0B9A35
:105E7000F96C4046FFF784FD60E710238DF8493048
:105E8000E3E71023124A51464846FFF723FBB8B117
:105E9000296869B90A22103069F0E4FDAB88C01A9C
:105EA00080B2A860B0616B7B3377AB7B7377DCE744
:105EB000884205D2ABEB0101A9800A220699EAE7E4
:105EC0000023AB80B361EEE7E22F0A107A300A10AC
:105ED00095300A10034610B103C983E803007047E8
:105EE0007047D0E9003018472DE9F04190B005AB7C
:105EF0000646112218468846002166F001FA002461
:105F0000029408AA034692E8030000908DF804105A
:105F10000ECB0AA827F0C1FAD6E90C138B420AD39C
:105F20002D482E4E66F036FA0AA827F0E0FB3046E0
:105F300010B0BDE8F0811420376965F033FD0546E7
:105F4000C8F80000002839D01422214666F0D8F99C
:105F50003B6804A99B6B384698470499E86079BB75
:105F600003685B6A98473778D7B94FF4AD6065F03E
:105F700019FD044670B34FF4AD62394666F0C0F9BE
:105F80003A46716A204600F0ABFA18BB0222E96873
:105F90002C61204600F064F9E0B9114866F098FAE7
:105FA000294628463EF07AF906F1180029463EF0C7
:105FB000A9F9736B013373630026B5E7094EB3E7A4
:105FC000094E284665F0F6FC002CADD0204665F061
:105FD000F1FCA9E7054EF4E730340A10080002127C
:105FE00079340A100200021206000212070002129F
:105FF00003691BB103F1100024F0ECBAC068036818
:106000005B69184701600020704700230360184651
:1060100070470000F8B5036814461A6906460D4635
:1060200092B1144F002C22DD3368186922462946AC
:10603000103022F02FFE002819D002DAB842F1D039
:10604000F8BD241A0544EDE7DE680A4F002C0EDD8A
:10605000336822461B69294630469847002806D0F7
:1060600002DAB842ECD1F1E7241A0544EEE7002049
:10607000E6E700BF47F4FFFF002070471FB5C36885
:106080001A680024CDE90010074903911846D26A26
:10609000029469469047039B13B19B6868469847F2
:1060A000002004B010BD00BF24340A10FFF7E6BF83
:1060B0002DE9F3410C46D1F80C8002A9002500F12E
:1060C0001807064641F8045D38463EF0EFF801999E
:1060D000E1B10B689C4216D138463EF06FF9206959
:1060E00020B100F01DFA206965F064FCD8F800309A
:1060F00040469B689847204665F05CFC736B0195B1
:10610000013B7363E3E74B680193E0E7084602B0A5
:10611000BDE8F081F7B502AE002346F8043D0469FE
:10612000054600F11807314638463EF023F928B9F4
:10613000019B28461968FFF7BBFFF4E73CB12368D1
:1061400020469B689847236820465B6898473846F6
:106150003EF092F8002003B0F0BD03685B69184779
:1061600003681B69184700002DE9F0414F68054698
:106170000021904638221E4666F0C2F805F118004C
:106180003EF06EF890202EF0ABF8044627F06CFC41
:106190000021204626F0D0FD3B6838461B6E98470C
:1061A00027F0C4F80146204626F04EFF88B9414644
:1061B000204626F007FF70B923683146DB6B204686
:1061C000984750B99DF818302B702C612E63BDE8AC
:1061D000F0810348FBE70348F9E70348F7E700BF0E
:1061E0000300021204000212050002127047FFF7BA
:1061F000B4BFFFF7B5BFF8B50E461746044610B951
:106200004FF0FF30F8BD0029FAD0002AF8D0056819
:106210002DB1284625F0DDFE284665F0CBFB4FF476
:10622000AA7065F0BFFB20600028E9D025F0CCFE05
:106230007A1C3146206826F013FB0028E2D0206843
:1062400025F0C7FE206865F0B5FB00232360D7E783
:106250000A4601460148FFF7CEBF00BF18AC000850
:106260002DE9F04F05698E4C00F110079BB00646F2
:1062700038468A4606F56C7920F0C8FB284621F09E
:10628000B5F848460FF060F92822002110A866F002
:1062900037F88449844B854A2360C4E90A110023F6
:1062A000C4E90C11A16382496360C4E9022306F5C5
:1062B0009C7B804A2262C4E90F134FF0FF326FF0DB
:1062C00001014FF001085846C4E91123C4E9151330
:1062D000C4E90433C4E9063362622365C4E9188261
:1062E000C4E91A22C4E91C2284F87830C4E91F22C8
:1062F000C4E92123C4E92A32C4E92333C4E926339B
:10630000C4E92833C4F8B020C4E92E22C4F894802C
:10631000C4F8B48012F0F0FF112300935A46664B84
:10632000664948460FF084F9034620B14FF0FF302C
:106330001BB0BDE8F08FD4F8A0204146284621F0DC
:1063400059F802460028F1D1E368002B03DD01462D
:10635000284620F067FB94F87810284620F028FCA7
:106360000028E3D1D4F8B8104B1C03D0C9B228469A
:1063700020F017FCD4F8BC10481C03D0C9B2284642
:1063800020F008FCD4F89C30002B79D14A464C49C7
:10639000284620F04AFB4B4B4B491B6828469A681D
:1063A00020F046FBA169284620F04BFBD4F894105E
:1063B000284620F017FCA36C1BB14449284620F066
:1063C00043FBD6F83431002B62D000221946284610
:1063D00020F042FB0221284620F01DFBD4F8980053
:1063E00038B13B4966F0A0FC18B103A9284620F05B
:1063F00077FBD4F83C80404667F0E2FE43460090CD
:10640000002208A9284620F02BFB00288ED1D6F8C0
:106410003021002A42D002F10801284620F019FB61
:10642000002883D1626E511C03D00321284620F03E
:10643000ACFBA26E531C03D00321284620F0A0FB26
:106440002946384620F05AFE014600287FF46EAFF8
:10645000384620F047FB00287FF468AF00901D4BC2
:106460001D4A5146384620F0E6FA384620F096FCA0
:1064700000283FF45DAF10F51C5F3FF457AFF4E721
:1064800010A9284620F064FB00283FF47FAF4DE7B9
:10649000124A116800299ED01A4698E7EA66C1E7B9
:1064A000AC5C0108FD700A1091340A109B340A108C
:1064B000A2340A10A0340A10B2340A1061930110F9
:1064C000195701100C270008ED610010F45C010859
:1064D000C4340A10EF610010F361001018AC00081A
:1064E00070B50E461546044610B94FF0FF3070BD2A
:1064F0004FF4AD62002165F003FFB82065F052FA59
:1065000020610028F1D0B822002165F0F9FE034B8C
:106510002360C4F83061A5600020E8E78BC009D390
:1065200010B5044628B3006920F0CEFF206918B1E9
:1065300065F040FA0023236104F1100020F0E8FE2A
:1065400004F56C700FF005F804F59C7012F0F8FE7D
:10655000D4F8340128B125F03CFDD4F8340165F0BD
:1065600029FA4FF4AD620021204665F0C9FE0020F3
:1065700010BD4FF0FF30FBE72DE9F743DDF8289021
:106580000D4616469846044600B34FF4AE720021FD
:1065900065F0B6FEB8F1000F04D1D5B9002003B004
:1065A000BDE8F083B9F1000FF7D004F108073846D1
:1065B00025F00AFD09F101024146384626F050F95E
:1065C0000028EAD004F1080025F003FD4FF0FF3069
:1065D000E5E7002EE2D0204613F00BFF00230093E6
:1065E000721C2946204614F0D9FC0028D6D020463B
:1065F00013F003FFE6E70368184708B10B68036070
:1066000070477047C36810B504460BB19B68984744
:10661000204610BD00207047002070470120002157
:106620007047D0E90A0170470048704748350A10A2
:106630002DE9F74F1F46D0E908348246043016464C
:1066400025461C4600F04EFADDE90C89DAF80030E8
:1066500018EB060883469B6B504649EB07099847A1
:10666000494508BF404503D2002003B0BDE8F08F84
:10667000A4197D41B4EB0B0265F10003CDE90023C1
:10668000DAF800303246196B50463B4688470246DE
:106690000B46DDE9000177F06BFB1343E4D1DDE944
:1066A0000C45DDE9002312196B411D46DAF8003074
:1066B000144618F1FF32196B504649F1FF338847F1
:1066C00002460B462046294677F052FB13430CBF87
:1066D00001200020C9E7F7B50E4690F830100446B7
:1066E0001746DDE9085C79B10168CDE9005CC96B4A
:1066F000884748B1226A2B463A443146201D03B0F0
:10670000BDE8F04000F056BA6FF47A6003B0F0BD17
:10671000F7B50E4690F8301004461746DDE9085CE0
:1067200079B10168CDE9005C096C884748B1226AFB
:106730002B463A443146201D03B0BDE8F04000F03E
:1067400057BA6FF47A6003B0F0BDF7B590F8301027
:1067500004461646DDE9085771B10168CDE90057D6
:10676000496C884740B1216A2A463144201D03B054
:10677000BDE8F04000F0B8BA6FF47A6003B0F0BD45
:1067800008B590F8303023B1043000F0A7F90021AB
:1067900008BD1846FBE708B590F830301BB104304F
:1067A00000F0A4F908BD4FF0FF30FBE72DE9D04F12
:1067B0009B4603689B6A92460446DDE90889984730
:1067C00002460B465046594677F0D2FA134302D0A0
:1067D0000020BDE8D08F236820469B6A9847024678
:1067E0000B464046494677F0C3FA1343F0D123687D
:1067F0001AEB08069B6B20464BEB09079847B942FA
:1068000008BFB0422CBF01200020E2E708B590F895
:1068100030302BB1016A043000F062F9002108BD6C
:106820001846FBE708B590F8303033B1016A043000
:10683000114400F055F9002108BD1846FBE72DE989
:10684000D04F9B4603685B6A92460446DDE908899F
:10685000984702460B465046594677F089FA13434B
:1068600002D00020BDE8D08F236820465B6A98479D
:1068700002460B464046494677F07AFA1343F0D178
:1068800023681AEB08069B6B20464BEB09079847D9
:10689000B94208BFB0422CBF01200020E2E72DE939
:1068A000F84F90F83030824603B943630AF1340759
:1068B00057E8003F5E1C47E80064002CF8D1012E29
:1068C0000AD10AF10405284600F03AF9044630B12D
:1068D000314638462CF048FF2046BDE8F88FDAE90B
:1068E0000A01DAE9088918EB000249EB010328469E
:1068F0009046994600F0F8F88346284600F0F2F8F2
:1069000000215844494508BF404506D23146384623
:106910002CF02AFF6FF47A64DEE7DAE9088928466A
:1069200000F0E0F80021894508BF8045EED3DAE9A0
:106930000823134304D1284600F0D4F8CAE9080418
